:020000040800F2
:1000000000040020D1020008310300083103000879
:10001000310300083103000831030008000000002C
:100020000000000000000000000000003103000894
:10003000310300080000000031030008310300080C
:1000400031030008310300083103000831030008C0
:1000500031030008310300083103000831030008B0
:1000600031030008310300083103000831030008A0
:100070003103000831030008310300083103000890
:100080003103000831030008310300083103000880
:100090003103000831030008310300083103000870
:1000A0003103000831030008310300083103000860
:1000B0003103000831030008310300083103000850
:1000C0003103000831030008310300083103000840
:1000D0003103000831030008310300083103000830
:1000E0003103000831030008310300083103000820
:1000F0003103000831030008310300083103000810
:1001000031030008310300083103000831030008FF
:1001100031030008310300083103000831030008EF
:1001200031030008310300083103000831030008DF
:100130005FF808F180B500AF154B154A126842F020
:1001400001021A60124A124B5968124B0B4053605D
:100150000F4A0F4B1B6823F0847323F48033136022
:100160000B4B0B4A126822F480221A60084B084A93
:10017000526822F4FE025A60054B4FF41F029A6047
:1001800000F00CF8044B4FF000629A6080BD00BF95
:10019000001002400000FFF800ED00E080B500AF65
:1001A00000F002F880BD00BF80B483B000AF002330
:1001B0007B6000233B603A4B394A126842F480323C
:1001C0001A60374B1B6803F400333B607B680133D4
:1001D0007B603B68002B03D17B68B3F5A06FF0D147
:1001E0002F4B1B6803F40033002B02D001233B602C
:1001F00001E000233B603B68012B4BD1294B294A8E
:10020000126842F010021A60264B264A126822F049
:1002100003021A60234B234A126842F002021A605A
:100220001F4B1F4A52685A601D4B1D4A52685A6044
:100230001B4B1B4A526842F480625A60184B184AA2
:10024000526822F47C125A60154B154A526842F4E7
:10025000E8125A60124B124A126842F080721A6019
:1002600000BF0F4B1B6803F00073002BF9D00C4B41
:100270000B4A526822F003025A60094B084A52683E
:1002800042F002025A6000BF054B5B6803F00C03AA
:10029000082BF9D10C37BD465DF8047B704700BFD1
:1002A000001002400020024080B400AFBFF34F8F27
:1002B000054A054BDB6803F4E061044B0B43D36054
:1002C000BFF34F8FFEE700BF00ED00E00400FA052A
:1002D00080B582B000AF114B7B60114B3B6007E0F3
:1002E0003B681A1D3A607A68111D796012681A60BD
:1002F0003A680C4B9A42F3D30B480C494FF000027A
:100300008842B8BF40F8042BFFF6FAAFFFF712FFA0
:1003100000F014F80837BD4680BD00BF5403000844
:10032000000000200000002000000020000000204D
:1003300080B500AFFFF7B8FFFCE700BF80B500AFA6
:1003400000F002F8FEE700BF80B400AFBD465DF8E4
:04035000047B704773
:0400000508000000EF
:00000001FF
